{
  "contractName": "ProposalContract",
  "abi": [
    {
      "anonymous": false,
      "inputs": [
        {
          "indexed": true,
          "internalType": "uint256",
          "name": "id",
          "type": "uint256"
        },
        {
          "indexed": false,
          "internalType": "string",
          "name": "title",
          "type": "string"
        },
        {
          "indexed": false,
          "internalType": "string",
          "name": "description",
          "type": "string"
        }
      ],
      "name": "ProposalCreated",
      "type": "event"
    },
    {
      "anonymous": false,
      "inputs": [
        {
          "indexed": true,
          "internalType": "uint256",
          "name": "id",
          "type": "uint256"
        },
        {
          "indexed": true,
          "internalType": "address",
          "name": "voter",
          "type": "address"
        },
        {
          "indexed": false,
          "internalType": "bool",
          "name": "vote",
          "type": "bool"
        }
      ],
      "name": "Voted",
      "type": "event"
    },
    {
      "inputs": [
        {
          "internalType": "uint256",
          "name": "",
          "type": "uint256"
        },
        {
          "internalType": "address",
          "name": "",
          "type": "address"
        }
      ],
      "name": "hasVoted",
      "outputs": [
        {
          "internalType": "bool",
          "name": "",
          "type": "bool"
        }
      ],
      "stateMutability": "view",
      "type": "function"
    },
    {
      "inputs": [
        {
          "internalType": "uint256",
          "name": "",
          "type": "uint256"
        }
      ],
      "name": "proposals",
      "outputs": [
        {
          "internalType": "uint256",
          "name": "id",
          "type": "uint256"
        },
        {
          "internalType": "string",
          "name": "title",
          "type": "string"
        },
        {
          "internalType": "string",
          "name": "description",
          "type": "string"
        },
        {
          "internalType": "uint256",
          "name": "yesVotes",
          "type": "uint256"
        },
        {
          "internalType": "uint256",
          "name": "noVotes",
          "type": "uint256"
        }
      ],
      "stateMutability": "view",
      "type": "function"
    },
    {
      "inputs": [
        {
          "internalType": "string",
          "name": "_title",
          "type": "string"
        },
        {
          "internalType": "string",
          "name": "_description",
          "type": "string"
        }
      ],
      "name": "createProposal",
      "outputs": [],
      "stateMutability": "nonpayable",
      "type": "function"
    },
    {
      "inputs": [],
      "name": "readProposals",
      "outputs": [
        {
          "components": [
            {
              "internalType": "uint256",
              "name": "id",
              "type": "uint256"
            },
            {
              "internalType": "string",
              "name": "title",
              "type": "string"
            },
            {
              "internalType": "string",
              "name": "description",
              "type": "string"
            },
            {
              "internalType": "uint256",
              "name": "yesVotes",
              "type": "uint256"
            },
            {
              "internalType": "uint256",
              "name": "noVotes",
              "type": "uint256"
            }
          ],
          "internalType": "struct ProposalContract.Proposal[]",
          "name": "",
          "type": "tuple[]"
        }
      ],
      "stateMutability": "view",
      "type": "function"
    },
    {
      "inputs": [
        {
          "internalType": "uint256",
          "name": "_id",
          "type": "uint256"
        },
        {
          "internalType": "bool",
          "name": "_isYesVote",
          "type": "bool"
        }
      ],
      "name": "voteOnProposal",
      "outputs": [],
      "stateMutability": "nonpayable",
      "type": "function"
    }
  ],
  "bytecode": "0x608060405234801561000f575f80fd5b506111c28061001d5f395ff3fe608060405234801561000f575f80fd5b5060043610610055575f3560e01c8063013cf08b146100595780631614665c1461008d57806343859632146100a957806365e481e2146100d957806380934f33146100f5575b5f80fd5b610073600480360381019061006e9190610753565b610113565b604051610084959493929190610817565b60405180910390f35b6100a760048036038101906100a291906108ab565b61025f565b005b6100c360048036038101906100be9190610943565b61046e565b6040516100d09190610990565b60405180910390f35b6100f360048036038101906100ee9190610ad5565b610498565b005b6100fd610577565b60405161010a9190610cd7565b60405180910390f35b5f8181548110610121575f80fd5b905f5260205f2090600502015f91509050805f01549080600101805461014690610d24565b80601f016020809104026020016040519081016040528092919081815260200182805461017290610d24565b80156101bd5780601f10610194576101008083540402835291602001916101bd565b820191905f5260205f20905b8154815290600101906020018083116101a057829003601f168201915b5050505050908060020180546101d290610d24565b80601f01602080910402602001604051908101604052809291908181526020018280546101fe90610d24565b80156102495780601f1061022057610100808354040283529160200191610249565b820191905f5260205f20905b81548152906001019060200180831161022c57829003601f168201915b5050505050908060030154908060040154905085565b5f8054905082106102a5576040517f08c379a000000000000000000000000000000000000000000000000000000000815260040161029c90610d9e565b60405180910390fd5b60015f8381526020019081526020015f205f3373ffffffffffffffffffffffffffffffffffffffff1673ffffffffffffffffffffffffffffffffffffffff1681526020019081526020015f205f9054906101000a900460ff161561033e576040517f08c379a000000000000000000000000000000000000000000000000000000000815260040161033590610e2c565b60405180910390fd5b8015610380575f828154811061035757610356610e4a565b5b905f5260205f2090600502016003015f81548092919061037690610ea4565b91905055506103b8565b5f828154811061039357610392610e4a565b5b905f5260205f2090600502016004015f8154809291906103b290610ea4565b91905055505b6001805f8481526020019081526020015f205f3373ffffffffffffffffffffffffffffffffffffffff1673ffffffffffffffffffffffffffffffffffffffff1681526020019081526020015f205f6101000a81548160ff0219169083151502179055503373ffffffffffffffffffffffffffffffffffffffff16827ff2913dbe661ee2acc4a046d8fbcdc792373bda34c41c6086484b5345e5785e5f836040516104629190610990565b60405180910390a35050565b6001602052815f5260405f20602052805f5260405f205f915091509054906101000a900460ff1681565b5f808054905090505f6040518060a001604052808381526020018581526020018481526020015f81526020015f815250908060018154018082558091505060019003905f5260205f2090600502015f909190919091505f820151815f0155602082015181600101908161050b9190611088565b5060408201518160020190816105219190611088565b5060608201518160030155608082015181600401555050807fab417751734d6a1f646db70d698328fa08bc6c3f8d4b8ef2a69adb1eb051496b848460405161056a929190611157565b60405180910390a2505050565b60605f805480602002602001604051908101604052809291908181526020015f905b82821015610706578382905f5260205f2090600502016040518060a00160405290815f82015481526020016001820180546105d390610d24565b80601f01602080910402602001604051908101604052809291908181526020018280546105ff90610d24565b801561064a5780601f106106215761010080835404028352916020019161064a565b820191905f5260205f20905b81548152906001019060200180831161062d57829003601f168201915b5050505050815260200160028201805461066390610d24565b80601f016020809104026020016040519081016040528092919081815260200182805461068f90610d24565b80156106da5780601f106106b1576101008083540402835291602001916106da565b820191905f5260205f20905b8154815290600101906020018083116106bd57829003601f168201915b505050505081526020016003820154815260200160048201548152505081526020019060010190610599565b50505050905090565b5f604051905090565b5f80fd5b5f80fd5b5f819050919050565b61073281610720565b811461073c575f80fd5b50565b5f8135905061074d81610729565b92915050565b5f6020828403121561076857610767610718565b5b5f6107758482850161073f565b91505092915050565b61078781610720565b82525050565b5f81519050919050565b5f82825260208201905092915050565b5f5b838110156107c45780820151818401526020810190506107a9565b5f8484015250505050565b5f601f19601f8301169050919050565b5f6107e98261078d565b6107f38185610797565b93506108038185602086016107a7565b61080c816107cf565b840191505092915050565b5f60a08201905061082a5f83018861077e565b818103602083015261083c81876107df565b9050818103604083015261085081866107df565b905061085f606083018561077e565b61086c608083018461077e565b9695505050505050565b5f8115159050919050565b61088a81610876565b8114610894575f80fd5b50565b5f813590506108a581610881565b92915050565b5f80604083850312156108c1576108c0610718565b5b5f6108ce8582860161073f565b92505060206108df85828601610897565b9150509250929050565b5f73ffffffffffffffffffffffffffffffffffffffff82169050919050565b5f610912826108e9565b9050919050565b61092281610908565b811461092c575f80fd5b50565b5f8135905061093d81610919565b92915050565b5f806040838503121561095957610958610718565b5b5f6109668582860161073f565b92505060206109778582860161092f565b9150509250929050565b61098a81610876565b82525050565b5f6020820190506109a35f830184610981565b92915050565b5f80fd5b5f80fd5b7f4e487b71000000000000000000000000000000000000000000000000000000005f52604160045260245ffd5b6109e7826107cf565b810181811067ffffffffffffffff82111715610a0657610a056109b1565b5b80604052505050565b5f610a1861070f565b9050610a2482826109de565b919050565b5f67ffffffffffffffff821115610a4357610a426109b1565b5b610a4c826107cf565b9050602081019050919050565b828183375f83830152505050565b5f610a79610a7484610a29565b610a0f565b905082815260208101848484011115610a9557610a946109ad565b5b610aa0848285610a59565b509392505050565b5f82601f830112610abc57610abb6109a9565b5b8135610acc848260208601610a67565b91505092915050565b5f8060408385031215610aeb57610aea610718565b5b5f83013567ffffffffffffffff811115610b0857610b0761071c565b5b610b1485828601610aa8565b925050602083013567ffffffffffffffff811115610b3557610b3461071c565b5b610b4185828601610aa8565b9150509250929050565b5f81519050919050565b5f82825260208201905092915050565b5f819050602082019050919050565b610b7d81610720565b82525050565b5f82825260208201905092915050565b5f610b9d8261078d565b610ba78185610b83565b9350610bb78185602086016107a7565b610bc0816107cf565b840191505092915050565b5f60a083015f830151610be05f860182610b74565b5060208301518482036020860152610bf88282610b93565b91505060408301518482036040860152610c128282610b93565b9150506060830151610c276060860182610b74565b506080830151610c3a6080860182610b74565b508091505092915050565b5f610c508383610bcb565b905092915050565b5f602082019050919050565b5f610c6e82610b4b565b610c788185610b55565b935083602082028501610c8a85610b65565b805f5b85811015610cc55784840389528151610ca68582610c45565b9450610cb183610c58565b925060208a01995050600181019050610c8d565b50829750879550505050505092915050565b5f6020820190508181035f830152610cef8184610c64565b905092915050565b7f4e487b71000000000000000000000000000000000000000000000000000000005f52602260045260245ffd5b5f6002820490506001821680610d3b57607f821691505b602082108103610d4e57610d4d610cf7565b5b50919050565b7f50726f706f73616c20646f6573206e6f742065786973740000000000000000005f82015250565b5f610d88601783610797565b9150610d9382610d54565b602082019050919050565b5f6020820190508181035f830152610db581610d7c565b9050919050565b7f596f75206861766520616c726561647920766f746564206f6e207468697320705f8201527f726f706f73616c00000000000000000000000000000000000000000000000000602082015250565b5f610e16602783610797565b9150610e2182610dbc565b604082019050919050565b5f6020820190508181035f830152610e4381610e0a565b9050919050565b7f4e487b71000000000000000000000000000000000000000000000000000000005f52603260045260245ffd5b7f4e487b71000000000000000000000000000000000000000000000000000000005f52601160045260245ffd5b5f610eae82610720565b91507fffffffffffffffffffffffffffffffffffffffffffffffffffffffffffffffff8203610ee057610edf610e77565b5b600182019050919050565b5f819050815f5260205f209050919050565b5f6020601f8301049050919050565b5f82821b905092915050565b5f60088302610f477fffffffffffffffffffffffffffffffffffffffffffffffffffffffffffffffff82610f0c565b610f518683610f0c565b95508019841693508086168417925050509392505050565b5f819050919050565b5f610f8c610f87610f8284610720565b610f69565b610720565b9050919050565b5f819050919050565b610fa583610f72565b610fb9610fb182610f93565b848454610f18565b825550505050565b5f90565b610fcd610fc1565b610fd8818484610f9c565b505050565b5b81811015610ffb57610ff05f82610fc5565b600181019050610fde565b5050565b601f8211156110405761101181610eeb565b61101a84610efd565b81016020851015611029578190505b61103d61103585610efd565b830182610fdd565b50505b505050565b5f82821c905092915050565b5f6110605f1984600802611045565b1980831691505092915050565b5f6110788383611051565b9150826002028217905092915050565b6110918261078d565b67ffffffffffffffff8111156110aa576110a96109b1565b5b6110b48254610d24565b6110bf828285610fff565b5f60209050601f8311600181146110f0575f84156110de578287015190505b6110e8858261106d565b86555061114f565b601f1984166110fe86610eeb565b5f5b8281101561112557848901518255600182019150602085019450602081019050611100565b86831015611142578489015161113e601f891682611051565b8355505b6001600288020188555050505b505050505050565b5f6040820190508181035f83015261116f81856107df565b9050818103602083015261118381846107df565b9050939250505056fea264697066735822122025987ee773781833c78a5b1af337ee2bd04724014614feb6dc53b87b27a5a1cc64736f6c63430008150033",
  "immutableReferences": {},
  "source": "// SPDX-License-Identifier: MIT\npragma solidity >=0.4.22 <0.9.0;\n\ncontract ProposalContract {\n    struct Proposal {\n        uint256 id;\n        string title;\n        string description;\n        uint256 yesVotes;\n        uint256 noVotes;\n    }\n\n    // all proposals\n    Proposal[] public proposals;\n\n    // mapping to track if an address has voted on a proposal\n    mapping(uint256 => mapping(address => bool)) public hasVoted;\n\n    // event for new proposal\n    event ProposalCreated(uint256 indexed id, string title, string description);\n\n    // event for new vote\n    event Voted(uint256 indexed id, address indexed voter, bool vote);\n\n    // function to create a new proposal\n    function createProposal(string memory _title, string memory _description) public {\n        uint256 id = proposals.length;\n        proposals.push(Proposal({\n            id: id, title: _title, description: _description, yesVotes: 0, noVotes: 0\n        }));\n        emit ProposalCreated(id, _title, _description);\n    }\n\n    // function to read all proposals\n    function readProposals() public view returns (Proposal[] memory) {\n        return proposals;\n    }\n\n    // function to vote on a proposal\n    function voteOnProposal(uint256 _id, bool _isYesVote) public { \n        require(_id < proposals.length, \"Proposal does not exist\");\n        require(!hasVoted[_id][msg.sender], \"You have already voted on this proposal\");\n        if (_isYesVote) {\n            proposals[_id].yesVotes++;\n        } else {\n            proposals[_id].noVotes++;\n        }\n        hasVoted[_id][msg.sender] = true;\n        emit Voted(_id, msg.sender, _isYesVote);\n    }\n}",
  "sourcePath": "/Volumes/Data/workspace/cryptodev523/dApp-proposal-management/contracts/contracts/ProposalContract.sol",
  "compiler": {
    "name": "solc",
    "version": "0.8.21+commit.d9974bed.Emscripten.clang"
  },
  "schemaVersion": "3.4.16",
  "updatedAt": "2023-11-13T18:06:28.364Z",
  "devdoc": {
    "kind": "dev",
    "methods": {},
    "version": 1
  },
  "userdoc": {
    "kind": "user",
    "methods": {},
    "version": 1
  }
}