{
  "contractName": "ProposalContract",
  "abi": [
    {
      "anonymous": false,
      "inputs": [
        {
          "indexed": true,
          "internalType": "uint256",
          "name": "id",
          "type": "uint256"
        },
        {
          "indexed": false,
          "internalType": "string",
          "name": "title",
          "type": "string"
        },
        {
          "indexed": false,
          "internalType": "string",
          "name": "description",
          "type": "string"
        }
      ],
      "name": "ProposalCreated",
      "type": "event"
    },
    {
      "anonymous": false,
      "inputs": [
        {
          "indexed": true,
          "internalType": "uint256",
          "name": "id",
          "type": "uint256"
        },
        {
          "indexed": true,
          "internalType": "address",
          "name": "voter",
          "type": "address"
        },
        {
          "indexed": false,
          "internalType": "bool",
          "name": "vote",
          "type": "bool"
        }
      ],
      "name": "Voted",
      "type": "event"
    },
    {
      "inputs": [
        {
          "internalType": "uint256",
          "name": "",
          "type": "uint256"
        },
        {
          "internalType": "address",
          "name": "",
          "type": "address"
        }
      ],
      "name": "hasVoted",
      "outputs": [
        {
          "internalType": "bool",
          "name": "",
          "type": "bool"
        }
      ],
      "stateMutability": "view",
      "type": "function",
      "constant": true
    },
    {
      "inputs": [
        {
          "internalType": "uint256",
          "name": "",
          "type": "uint256"
        }
      ],
      "name": "proposals",
      "outputs": [
        {
          "internalType": "uint256",
          "name": "id",
          "type": "uint256"
        },
        {
          "internalType": "string",
          "name": "title",
          "type": "string"
        },
        {
          "internalType": "string",
          "name": "description",
          "type": "string"
        },
        {
          "internalType": "uint256",
          "name": "yesVotes",
          "type": "uint256"
        },
        {
          "internalType": "uint256",
          "name": "noVotes",
          "type": "uint256"
        }
      ],
      "stateMutability": "view",
      "type": "function",
      "constant": true
    },
    {
      "inputs": [
        {
          "internalType": "string",
          "name": "_title",
          "type": "string"
        },
        {
          "internalType": "string",
          "name": "_description",
          "type": "string"
        }
      ],
      "name": "createProposal",
      "outputs": [],
      "stateMutability": "nonpayable",
      "type": "function"
    },
    {
      "inputs": [],
      "name": "readProposals",
      "outputs": [
        {
          "components": [
            {
              "internalType": "uint256",
              "name": "id",
              "type": "uint256"
            },
            {
              "internalType": "string",
              "name": "title",
              "type": "string"
            },
            {
              "internalType": "string",
              "name": "description",
              "type": "string"
            },
            {
              "internalType": "uint256",
              "name": "yesVotes",
              "type": "uint256"
            },
            {
              "internalType": "uint256",
              "name": "noVotes",
              "type": "uint256"
            }
          ],
          "internalType": "struct ProposalContract.Proposal[]",
          "name": "",
          "type": "tuple[]"
        }
      ],
      "stateMutability": "view",
      "type": "function",
      "constant": true
    },
    {
      "inputs": [
        {
          "internalType": "uint256",
          "name": "_id",
          "type": "uint256"
        },
        {
          "internalType": "bool",
          "name": "_isYesVote",
          "type": "bool"
        }
      ],
      "name": "voteOnProposal",
      "outputs": [],
      "stateMutability": "nonpayable",
      "type": "function"
    }
  ],
  "bytecode": "0x608060405234801561001057600080fd5b5061108f806100206000396000f3fe608060405234801561001057600080fd5b50600436106100575760003560e01c8063013cf08b1461005c5780631614665c1461009057806343859632146100ac57806365e481e2146100dc57806380934f33146100f8575b600080fd5b61007660048036038101906100719190610841565b610116565b604051610087959493929190610916565b60405180910390f35b6100aa60048036038101906100a591906109af565b61026c565b005b6100c660048036038101906100c19190610a4d565b61048e565b6040516100d39190610a9c565b60405180910390f35b6100f660048036038101906100f19190610bec565b6104bd565b005b6101006105b3565b60405161010d9190610dfc565b60405180910390f35b6000818154811061012657600080fd5b906000526020600020906005020160009150905080600001549080600101805461014f90610e4d565b80601f016020809104026020016040519081016040528092919081815260200182805461017b90610e4d565b80156101c85780601f1061019d576101008083540402835291602001916101c8565b820191906000526020600020905b8154815290600101906020018083116101ab57829003601f168201915b5050505050908060020180546101dd90610e4d565b80601f016020809104026020016040519081016040528092919081815260200182805461020990610e4d565b80156102565780601f1061022b57610100808354040283529160200191610256565b820191906000526020600020905b81548152906001019060200180831161023957829003601f168201915b5050505050908060030154908060040154905085565b60008054905082106102b3576040517f08c379a00000000000000000000000000000000000000000000000000000000081526004016102aa90610eca565b60405180910390fd5b6001600083815260200190815260200160002060003373ffffffffffffffffffffffffffffffffffffffff1673ffffffffffffffffffffffffffffffffffffffff16815260200190815260200160002060009054906101000a900460ff1615610351576040517f08c379a000000000000000000000000000000000000000000000000000000000815260040161034890610f5c565b60405180910390fd5b8015610397576000828154811061036b5761036a610f7c565b5b9060005260206000209060050201600301600081548092919061038d90610fda565b91905055506103d3565b600082815481106103ab576103aa610f7c565b5b906000526020600020906005020160040160008154809291906103cd90610fda565b91905055505b600180600084815260200190815260200160002060003373ffffffffffffffffffffffffffffffffffffffff1673ffffffffffffffffffffffffffffffffffffffff16815260200190815260200160002060006101000a81548160ff0219169083151502179055503373ffffffffffffffffffffffffffffffffffffffff16827ff2913dbe661ee2acc4a046d8fbcdc792373bda34c41c6086484b5345e5785e5f836040516104829190610a9c565b60405180910390a35050565b60016020528160005260406000206020528060005260406000206000915091509054906101000a900460ff1681565b60008080549050905060006040518060a001604052808381526020018581526020018481526020016000815260200160008152509080600181540180825580915050600190039060005260206000209060050201600090919091909150600082015181600001556020820151816001019080519060200190610540929190610754565b50604082015181600201908051906020019061055d929190610754565b5060608201518160030155608082015181600401555050807fab417751734d6a1f646db70d698328fa08bc6c3f8d4b8ef2a69adb1eb051496b84846040516105a6929190611022565b60405180910390a2505050565b60606000805480602002602001604051908101604052809291908181526020016000905b8282101561074b57838290600052602060002090600502016040518060a00160405290816000820154815260200160018201805461061490610e4d565b80601f016020809104026020016040519081016040528092919081815260200182805461064090610e4d565b801561068d5780601f106106625761010080835404028352916020019161068d565b820191906000526020600020905b81548152906001019060200180831161067057829003601f168201915b505050505081526020016002820180546106a690610e4d565b80601f01602080910402602001604051908101604052809291908181526020018280546106d290610e4d565b801561071f5780601f106106f45761010080835404028352916020019161071f565b820191906000526020600020905b81548152906001019060200180831161070257829003601f168201915b5050505050815260200160038201548152602001600482015481525050815260200190600101906105d7565b50505050905090565b82805461076090610e4d565b90600052602060002090601f01602090048101928261078257600085556107c9565b82601f1061079b57805160ff19168380011785556107c9565b828001600101855582156107c9579182015b828111156107c85782518255916020019190600101906107ad565b5b5090506107d691906107da565b5090565b5b808211156107f35760008160009055506001016107db565b5090565b6000604051905090565b600080fd5b600080fd5b6000819050919050565b61081e8161080b565b811461082957600080fd5b50565b60008135905061083b81610815565b92915050565b60006020828403121561085757610856610801565b5b60006108658482850161082c565b91505092915050565b6108778161080b565b82525050565b600081519050919050565b600082825260208201905092915050565b60005b838110156108b757808201518184015260208101905061089c565b838111156108c6576000848401525b50505050565b6000601f19601f8301169050919050565b60006108e88261087d565b6108f28185610888565b9350610902818560208601610899565b61090b816108cc565b840191505092915050565b600060a08201905061092b600083018861086e565b818103602083015261093d81876108dd565b9050818103604083015261095181866108dd565b9050610960606083018561086e565b61096d608083018461086e565b9695505050505050565b60008115159050919050565b61098c81610977565b811461099757600080fd5b50565b6000813590506109a981610983565b92915050565b600080604083850312156109c6576109c5610801565b5b60006109d48582860161082c565b92505060206109e58582860161099a565b9150509250929050565b600073ffffffffffffffffffffffffffffffffffffffff82169050919050565b6000610a1a826109ef565b9050919050565b610a2a81610a0f565b8114610a3557600080fd5b50565b600081359050610a4781610a21565b92915050565b60008060408385031215610a6457610a63610801565b5b6000610a728582860161082c565b9250506020610a8385828601610a38565b9150509250929050565b610a9681610977565b82525050565b6000602082019050610ab16000830184610a8d565b92915050565b600080fd5b600080fd5b7f4e487b7100000000000000000000000000000000000000000000000000000000600052604160045260246000fd5b610af9826108cc565b810181811067ffffffffffffffff82111715610b1857610b17610ac1565b5b80604052505050565b6000610b2b6107f7565b9050610b378282610af0565b919050565b600067ffffffffffffffff821115610b5757610b56610ac1565b5b610b60826108cc565b9050602081019050919050565b82818337600083830152505050565b6000610b8f610b8a84610b3c565b610b21565b905082815260208101848484011115610bab57610baa610abc565b5b610bb6848285610b6d565b509392505050565b600082601f830112610bd357610bd2610ab7565b5b8135610be3848260208601610b7c565b91505092915050565b60008060408385031215610c0357610c02610801565b5b600083013567ffffffffffffffff811115610c2157610c20610806565b5b610c2d85828601610bbe565b925050602083013567ffffffffffffffff811115610c4e57610c4d610806565b5b610c5a85828601610bbe565b9150509250929050565b600081519050919050565b600082825260208201905092915050565b6000819050602082019050919050565b610c998161080b565b82525050565b600082825260208201905092915050565b6000610cbb8261087d565b610cc58185610c9f565b9350610cd5818560208601610899565b610cde816108cc565b840191505092915050565b600060a083016000830151610d016000860182610c90565b5060208301518482036020860152610d198282610cb0565b91505060408301518482036040860152610d338282610cb0565b9150506060830151610d486060860182610c90565b506080830151610d5b6080860182610c90565b508091505092915050565b6000610d728383610ce9565b905092915050565b6000602082019050919050565b6000610d9282610c64565b610d9c8185610c6f565b935083602082028501610dae85610c80565b8060005b85811015610dea5784840389528151610dcb8582610d66565b9450610dd683610d7a565b925060208a01995050600181019050610db2565b50829750879550505050505092915050565b60006020820190508181036000830152610e168184610d87565b905092915050565b7f4e487b7100000000000000000000000000000000000000000000000000000000600052602260045260246000fd5b60006002820490506001821680610e6557607f821691505b602082108103610e7857610e77610e1e565b5b50919050565b7f50726f706f73616c20646f6573206e6f74206578697374000000000000000000600082015250565b6000610eb4601783610888565b9150610ebf82610e7e565b602082019050919050565b60006020820190508181036000830152610ee381610ea7565b9050919050565b7f596f75206861766520616c726561647920766f746564206f6e2074686973207060008201527f726f706f73616c00000000000000000000000000000000000000000000000000602082015250565b6000610f46602783610888565b9150610f5182610eea565b604082019050919050565b60006020820190508181036000830152610f7581610f39565b9050919050565b7f4e487b7100000000000000000000000000000000000000000000000000000000600052603260045260246000fd5b7f4e487b7100000000000000000000000000000000000000000000000000000000600052601160045260246000fd5b6000610fe58261080b565b91507fffffffffffffffffffffffffffffffffffffffffffffffffffffffffffffffff820361101757611016610fab565b5b600182019050919050565b6000604082019050818103600083015261103c81856108dd565b9050818103602083015261105081846108dd565b9050939250505056fea2646970667358221220e1d54fd8fe7eef4b41dfb4269178d0b93da21050dd0cb6433f3ca2daf094b9d764736f6c634300080d0033",
  "immutableReferences": {},
  "source": "// SPDX-License-Identifier: MIT\npragma solidity ^0.8.9;\n\ncontract ProposalContract {\n    struct Proposal {\n        uint256 id;\n        string title;\n        string description;\n        uint256 yesVotes;\n        uint256 noVotes;\n    }\n\n    // all proposals\n    Proposal[] public proposals;\n\n    // mapping to track if an address has voted on a proposal\n    mapping(uint256 => mapping(address => bool)) public hasVoted;\n\n    // event for new proposal\n    event ProposalCreated(uint256 indexed id, string title, string description);\n\n    // event for new vote\n    event Voted(uint256 indexed id, address indexed voter, bool vote);\n\n    // function to create a new proposal\n    function createProposal(string memory _title, string memory _description) public {\n        uint256 id = proposals.length;\n        proposals.push(Proposal({\n            id: id, title: _title, description: _description, yesVotes: 0, noVotes: 0\n        }));\n        emit ProposalCreated(id, _title, _description);\n    }\n\n    // function to read all proposals\n    function readProposals() public view returns (Proposal[] memory) {\n        return proposals;\n    }\n\n    // function to vote on a proposal\n    function voteOnProposal(uint256 _id, bool _isYesVote) public { \n        require(_id < proposals.length, \"Proposal does not exist\");\n        require(!hasVoted[_id][msg.sender], \"You have already voted on this proposal\");\n        if (_isYesVote) {\n            proposals[_id].yesVotes++;\n        } else {\n            proposals[_id].noVotes++;\n        }\n        hasVoted[_id][msg.sender] = true;\n        emit Voted(_id, msg.sender, _isYesVote);\n    }\n}",
  "sourcePath": "/Volumes/Data/workspace/cryptodev523/dApp-proposal-management/contracts/contracts/ProposalContract.sol",
  "compiler": {
    "name": "solc",
    "version": "0.8.13+commit.abaa5c0e.Emscripten.clang"
  },
  "schemaVersion": "3.4.16",
  "updatedAt": "2023-11-13T19:38:59.414Z",
  "networkType": "ethereum",
  "devdoc": {
    "kind": "dev",
    "methods": {},
    "version": 1
  },
  "userdoc": {
    "kind": "user",
    "methods": {},
    "version": 1
  }
}